:020000041000EA
:1000000000B5324B212058609868022188439860DF
:10001000D860186158612E4B002199600221596106
:100020000121F02299502B49196001219960352056
:1000300000F044F80222904214D00621196600F024
:1000400034F8196E01211966002018661A6600F04E
:100050002CF8196E196E196E052000F02FF8012189
:100060000842F9D1002199601B49196000215960AB
:100070001A491B48016001219960EB211966A021F2
:10008000196600F012F800219960164914480160C1
:100090000121996001BC002800D000471248134993
:1000A000086003C880F30888084703B5996A0420EC
:1000B0000142FBD001200142F8D103BD02B5186610
:1000C0001866FFF7F2FF186E186E02BD00000240BE
:1000D000000000180000070000035F00212200005C
:1000E000F4000018222000A00001001008ED00E03C
:1000F00000000000000000000000000074B24E7A12
:1001000000200420F7010010C3010010C5010010F9
:10011000C1010010C1010010C1010010C101001097
:10012000C1010010C1010010C1010010C701001081
:10013000C1010010C1010010C9010010CB01001065
:10014000CD010010CD010010CD010010CD01001037
:10015000CD010010CD010010CD010010CD01001027
:10016000CD010010CD010010CD010010CD01001017
:10017000CD010010CD010010CD010010CD01001007
:10018000CD010010CD010010CD010010CD010010F7
:10019000CD010010CD010010CD010010CD010010E7
:1001A000CD010010CD010010CD010010CD010010D7
:1001B000CD010010CD010010CD010010CD010010C7
:1001C00000BE00BE00BE00BE00BE00BEEFF3058054
:1001D000103800BEF2EB88714CA8001074A8001013
:1001E0003402001090A31AE700201F49086006C8D7
:1001F00081F3088810471D48006800282FD10DA4FE
:100200000ECC002902D000F012F8F9E71849194A7B
:10021000002000E001C19142FCD1174988471749ED
:1002200088471749884700BEFDE701C901C29A42C5
:10023000FBD3704774A80010C0000020B038002025
:1002400064E00010000004200000042064E00010BE
:10025000001004200010042000000000704709482E
:1002600003F0BEFB0047000008ED00E0000000D0F6
:10027000B0380020C4550020E5260010910300107E
:10028000A52600105756000006005250ABB360532D
:100290008895001006005250861C0302A495001099
:1002A000060052505422A29DAC95001005005250F9
:1002B000DE65F46864E00010F8B5C04606480749FA
:1002C000091A8B10C90FC91810B5491003D0044B77
:1002D000002B00D0984710BDB0380020B038002067
:1002E00000000000054B10B5002B03D00449054861
:1002F00000E000BFFFF7E2FF10BDC04600000000B5
:1003000064450020F88A001010B50A2001F05BFB5C
:100310000121022001F098F9044B9860180007F0C1
:100320001DFB034B186008F0C7FBFCE740320020C0
:100330009C55002070B584B006000C0001AB02AAE9
:1003400003A900F0E9F8051E04D1002C09D1200012
:1003500004B070BD019A0299039800F0A1F82C0036
:10036000F5E70248310002F039FAC046F88A001079
:1003700070B50C0001258540D0263606B561080011
:1003800001F021FB7561200001F01DFB70BD000034
:10039000F0B5C64600B590B001213948FFF7CAFF55
:1003A00004F0B6F9374804F0A7F90A2001F00BFB76
:1003B00000240DE0344BA200D558280000F062F96B
:1003C0000123AB40D0221206536253610134A4B220
:1003D000022CEFD906F0DCFD2C4806F04DFE47E07C
:1003E00028211120FFF7C4FF01239C46E044434627
:1003F000032B3BDC264B1F684C2342465343FF181C
:100400003B78002BECD000261AE028211020FFF7C3
:10041000AFFFB98889B2FA8892B22379DBB21D485E
:1004200004F06AF9002405E06B46195D1A4804F0EF
:1004300063F90134AC42F7DB0A2004F0F9F8013625
:100440000F2ED1DCF1B2380006F0E2FE041ECBD054
:100450004022694608F0A8FA051ED6DC01211920C1
:10046000FFF786FFEBE70D4804F016F904F004F9F6
:10047000074B1B68002BF6D000239846B7E7C04611
:10048000C0D401002C8B0010E09F00100903001065
:100490009C550020348B00104C8B0010548B0010A6
:1004A000F0B583B004000D00160000F0F7F8002846
:1004B00001D003B0F0BD154F00973B000122012190
:1004C000053001F0AFFE00962B00220001211048FC
:1004D00001F0B2FF31006943200003F0D5FA0400B7
:1004E0000C4B009300220221042001F09BFE00949B
:1004F000230000220121052001F094FE00973B001B
:1005000002220021062001F08DFED2E7006CDC0201
:1005100000800240001BB700F0B5DE4657464E464D
:100520004546E0B583B080468B4692460193A023B2
:100530005B0099462AE0013C002C1ED025007D433B
:100540002900300003F0A0FA4045F4D12900300022
:1005500003F09AFA0029EED1144B4A4653435A4607
:10056000136053461F60019B1C60012003B0F0BC68
:10057000BB46B246A946A046F0BD013F002F01D0C0
:100580003C00D9E701235B429C46E1444B460F2BDC
:1005900009D9074E4B465E43064BF218064B9A426A
:1005A000F0D80727EAE70020E0E7C046001BB700C5
:1005B000E02E0000508EF4FF50F80C0010B58300C0
:1005C000084A944663441A684024624080341440C8
:1005D0008022520113431C60C000034B9C466044C0
:1005E000416010BD04C001400040014080000B4B41
:1005F0009C46604400290DD00823002A0CD0042218
:100600001343026853400C221A4080235B010343CA
:100610001A6070470023F0E70022F1E704C00140B0
:10062000C000074B9C466044090403685940C0233E
:100630009B02194080235B01034319607047C04649
:10064000044001408000064B9C46604403684B40D8
:100650000121194080235B01034319607047C046A4
:1006600004C001408000064B9C46604409010368B9
:10067000594030220A4080235B0103431A607047CF
:1006800004C0014010B501238340D02212069362BA
:1006900093610521FFF792FF10BD0000034B1B681B
:1006A00002201840431E9841C0B2704700C0064067
:1006B000EFF3108072B6034B1B68002BFBD0BFF327
:1006C0005F8F70472C0100D0BFF35F8F024B002279
:1006D0001A6080F3108870472C0100D0F8B506002E
:1006E0000C001500FFF7E4FFE308F718F15C0722A0
:1006F0002240012393400B4205D1DBB20B433B70F8
:10070000FFF7E2FFF8BD2100280002F067F8F0B51E
:1007100083B00600019114001F00FFF7C9FF00E03D
:100720000134BC420CD8E308F518F35C07212140E2
:1007300001228A401A42F3D1D2B21A432A7001E050
:1007400001246442FFF7C0FF002C02DB200003B04D
:10075000F0BD019B002BF9D0089802F03FF8000093
:10076000002307E0054A9A189200BFF35F8F00212B
:10077000116001331F2BF5D97047C046400000348B
:10078000054A1078431CDBB21370172B02D91300F3
:1007900010221A707047C0465032002010B582B047
:1007A0000100054C054B00931F2318222000FFF782
:1007B000AEFF02B010BDC046B0400020648B0010F8
:1007C000074B9B68103080001950BFF35F8FBFF359
:1007D0005F8F044B0021196082F310887047C04678
:1007E00000ED00E0240100D010B50388DA0A1C2ACD
:1007F00005D15B055B1502335B00C01810BD034BD0
:10080000034A0448B12101F051FFC046808B00101B
:1008100040A00010988B001010B5091A0B1F0A4A4F
:1008200088180A4A904208D8C90706D45B105B05AD
:100830005B0D0748184380B210BD064B064A0748B7
:10084000A32101F033FFC046FC070000FE0F0000AB
:1008500000E0FFFFD08B001034A00010988B001038
:1008600010B5091A04394A08090B08D14905490D80
:10087000064B0B430380064B1343438010BD054BCF
:10088000054A0648AB2101F011FFC04600F0FFFF0A
:1008900000F8FFFF008C001008A00010988B0010DB
:1008A00001238340034A10681840431E9841C0B298
:1008B0007047C04600E100E0002904D0034B1860F7
:1008C000034B18607047034B1860FBE780E200E0C1
:1008D00000E100E080E100E010B501238340180052
:1008E000FFF7EAFF10BD000001238340014A1360B7
:1008F0007047C04600E200E0024B9B681030800069
:10090000C058704700ED00E010B5FFF7F5FF002874
:1009100005D0054BC01A2F2803D8012010BD002098
:10092000FCE70020FAE7C0465432002070B504000E
:100930000D00EFF3108672B60C4B1B68002BFBD03A
:10094000BFF35F8F2000FFF7D7FF094B984201D01C
:10095000A84205D1320029002000FFF731FF70BD09
:10096000044B054A0548862101F0A0FE240100D071
:10097000CD010010108C001068A00010988B0010A2
:10098000F0B5DE4657464E464546E0B589B081464D
:1009900001911500EFF3108A72B66D4B1B68002BA6
:1009A000FBD0BFF35F8F6B4B00269E57002E41DBC1
:1009B0007400A419A400684824180622A256654BA6
:1009C0001A70664B9A684B4610339B00D358984672
:1009D0001F00181A2F2839D9614B984530D105AF1F
:1009E000604B3B80604973009B46981980005A4BCE
:1009F000984640440230FFF70FFF78805B4BBB8086
:100A0000FF23BB71FD71019B079333005B449B0087
:100A1000434407CF07C301231C43A0465246414627
:100A20004846FFF7CDFE09B0F0BCBB46B246A9462A
:100A3000A046F0BD4E4B4F4A4F48D72101F036FE3D
:100A40004E4B4C4A4C48DE2101F030FE01380C215F
:100A500003F01AF8002912D101239F43BB463B0043
:100A60000027DA79AA4211D90621595600290CDB50
:100A70004A005218920038491F008B18F1E7404B8A
:100A80003C4A3D48EA2101F011FE1F00002F2ED004
:100A900005AB3C4A1A80813A5A800623FB560293E2
:100AA000002B17DA384805AB9B469880029A9A715A
:100AB000DD71019A0792381D2100FFF7ADFEB88065
:100AC000BE71254B7200921992009B185A4613CAA8
:100AD00013C3A3E7381DFFF787FE010070008019DC
:100AE00080001D4BC0180430FFF796FEDBE705AF12
:100AF0001C4B3B801C49730002939B199B00164AB8
:100B000090461A0042440392901CFFF785FE7880BD
:100B1000039A101D5946FFF77FFEB8801B4B5A46BB
:100B20004146521A524153431B0DBB71FD71019A4C
:100B30000792029B9B199B00434407CF07C3114BAD
:100B40005A461380813B538001231C43A04665E72E
:100B5000240100D0BA5500205432002000ED00E0FE
:100B6000CD01001000A1FFFF8432002001BDFFFF76
:100B7000488C001050A00010988B0010708C001052
:100B8000988C00100148000001BD0000AAAA0000D6
:100B9000F0B5CE46474680B583B006000D00EFF3B2
:100BA000108872B64F4B1B68002BFBD0BFF35F8FD2
:100BB0004D4B9A6834001034A300D7584B4B9F42DA
:100BC00007D0AF4200D18BE00197494BFB1A2F2B86
:100BD00009D9424639003000FFF7F2FD03B0C0BC2E
:100BE000B946B046F0BD3000FFF75AFE81460021FD
:100BF0003000FFF771FEBFF35F8FEFF3058100292F
:100C000001D08C4211D10123019C9C430020A36898
:100C1000AB4212D00622A256002A0DDB53009B18CD
:100C20009B00334A2000D418F1E7324B324A362178
:100C30003248FF3101F03AFD2000AB4249D1062590
:100C40006557002D2BDB2A4B6A00521992009B1826
:100C50009A68A260DA79E2719B795BB2A371002B8A
:100C60000FDA2748A080224B6A00521992009B1885
:100C7000244A11789971157049463000FFF72CFE0F
:100C8000A7E7680040198000194BC0180430FFF72F
:100C9000ABFD0100231D1800FFF7BEFDE2E70029B0
:100CA00012D100280ED0FF238371174B8380154982
:100CB0000B78A3710E4A154BA41A644163431B0DB4
:100CC0000B70D9E7094FF2E71149201DFFF7C8FD66
:100CD000D2E7104B084A6A210848FF3101F0E6FCD0
:100CE000024F76E7240100D000ED00E0CD010010B6
:100CF000543200200C8D001020A00010988B0010A2
:100D000001BD0000BA55002001BDFFFFAAAA0000E6
:100D10008E320020408D001070B5012202432E4B10
:100D2000D31A2F2B28D8EFF30583002B2BD0EFF30A
:100D3000108C72B6294909680029FBD0BFF35F8F78
:100D4000254C274905002D1B6D416943090D4CB207
:100D5000244989689B00C95891421BD0002103296E
:100D600032D81D4B4A00521892009B189B795BB2F7
:100D7000A3421FD00131F2E71B4B1C4AC7211C487C
:100D8000490001F093FC1B4B184A92211848FF318F
:100D900001F08CFC134A92681749D150174B1A780E
:100DA00082711C70BFF35F8F0C4B00221A608CF3B2
:100DB000108870BD084B4A005518AD005D19FF261C
:100DC000AE710F4AAA80E9E70E4B084AD1210848C4
:100DD000490001F06BFCC04654320020240100D0D1
:100DE000AAAA000000ED00E0488D0010EC9F001062
:100DF000988B0010708D0010CD010010BA550020A6
:100E000001BDFFFF7C8D00100022044B02E004496D
:100E100002C30132072AFAD97047C04600E400E055
:100E20008080808010B582B00100074C074B009392
:100E3000052300222000FFF76AFC002801DB1F23A6
:100E4000181A02B010BDC046C1550020848D001094
:100E5000024B9C46614489000160704740000034A9
:100E600010B5002B02DB0260436010BD024B034A49
:100E700003483F2101F01AFCA08D0010A8A000102B
:100E8000BC8D001070B582B0060014001D00FA225F
:100E9000920000230698002103F08EF902000B0057
:100EA00012196B41002B09DB6846FFF7D9FF009A46
:100EB000019B32607360300002B070BD012252426B
:100EC000004BF1E7FFFFFF7F10B582B0040000F098
:100ED0000BFE02000B006846FFF7C2FF009A019B61
:100EE00022606360200002B010BD30B585B0040000
:100EF0000D0002A8FFF7E8FF029A039B009520006F
:100F0000FFF7C0FF200005B030BD10B50400FFF7AB
:100F100037FC01002000FFF79BFFFF232371BFF385
:100F20005F8F10BD10B50400FFF72AFC0100200000
:100F3000FFF78EFFFF23237100236371BFF35F8FE1
:100F400010BD0000034B9C46614489000160BFF363
:100F50005F8F70474000003410B504000120FFF798
:100F60001DFC01002000FFF7EDFF10BD084B5B6A80
:100F7000994209D8064A926A824207D2994201D020
:100F8000012002E0002000E0002070470120FCE783
:100F90000040054010B500290AD003681B7B8B4236
:100FA00006D38068054B9C4661440901401810BD7A
:100FB000034B044A04483C2101F078FBFFFFFF0F7C
:100FC000848E0010ACA10010A88E0010F8B50400AB
:100FD0001700FFF7DFFF0668456839002000FFF7BC
:100FE000D9FF026843680120AB4201D802D000203B
:100FF000C0B2F8BDB242FBD8F9E7000010B5002B33
:1010000002DB0260436010BD024B034A03483F21EC
:1010100001F04CFBA08D001078A10010BC8D0010D9
:1010200010B582B004000498059912184B41002BAA
:1010300009DB6846FFF7E2FF009A019B22606360CC
:10104000200002B010BD01225242014BF1E7C04620
:10105000FFFFFF7F10B5002908D0037B8B4205D32B
:1010600000684B005B18033BC01810BD024B034ADD
:101070000348682101F01AFBDC8E001054A1001017
:10108000F88E001010B5437B8B4201D1012010BDBA
:10109000FFF7E0FF8378002B01D10020F7E7012064
:1010A000F5E770B50400857B002D01D1280070BDE7
:1010B0002900FFF7CFFF4378A373002B00D1E37320
:1010C0000023837043700370F0E70000F8B506005A
:1010D0000C001500FFF7BEFF0700002C0DD0002DFF
:1010E00011D0AC4215D029003000FFF7B3FF847057
:1010F0003B78002B13D13D70F8BD0A4B0A4A0B48D0
:101100006F2101F0D3FA0A4B074A0848702101F019
:10111000CDFA084B044A0548712101F0C7FA437023
:101120003D70E9E73C8F001030A10010F88E0010F0
:10113000488F0010548F001070B506000D00140089
:10114000002914D0002A14D04368806898470028EA
:1011500006D0220029003000FFF7B8FF280007E082
:101160002A0021003000FFF7B1FF200000E010004E
:1011700070BD0800FCE7000070B504000D1E0CD027
:10118000FFF768FF0023837043700370617B2A00C0
:101190002000FFF7D1FF607370BD034B034A044882
:1011A000A52101F083FAC046B48F001044A10010BD
:1011B000F88E001070B504000D1E0FD0FFF762FF0F
:1011C00000280BD1E17B00290ED1A37B002B03D19A
:1011D000E37B002B0DD1A573E57370BD084B094A65
:1011E0000948F62101F062FA2000FFF733FF45704D
:1011F000EBE7064B034A0448FB2101F057FAC046CF
:101200006C8F001020A10010F88E0010908F00103D
:1012100010B5002907D003681B7B8B4203D3C0683D
:101220000139401810BD034B034A0448412101F025
:101230003DFAC046848E00100CA10010A88E00104C
:1012400010B50C00CB68834207D10B6908009847A2
:10125000002809D02068616810BD064B064A52215B
:101260000648FF3101F022FA0023E360002000214C
:10127000F2E7C046A48F0010C0A00010A88E001096
:1012800070B505000C00080000F052FD094920006F
:1012900000F092FCFFF774FA074B9C466044800014
:1012A00068602C75D0231B061B786B75034BA4005C
:1012B000E55070BDCD13001040000034585300209D
:1012C0000A4B1A68EFF3108172B61368002BFCD03A
:1012D000BFF35F8F054B1B68BFF35F8F00221A605F
:1012E00081F3108840BF0020002170477455002012
:1012F00010B582B0040000F0F7FB02000B00684656
:10130000FFF77CFE009A019B22606360200002B020
:1013100010BD70B584B0040016001D0002A8FFF7D0
:10132000E7FF029A039B009601952000FFF778FEE5
:10133000200004B070BD0000F0B583B0070001923A
:101340001D000AAB1C780BAB1E78002C0BD000687C
:101350002100FFF797FE002809D0194B194A1A48B7
:10136000672101F0A3F90068FFF79BFE0400002C41
:1013700002D1200003B0F0BD21003800FFF70AFEC3
:10138000019B03604560089B8360099BC3603868CC
:101390002100FFF7F1FEA042EBD1387D019A2B002E
:1013A00000F052FC051E01D0002E04D00C9B002B37
:1013B000DFD01D70DDE73868210000F015FEF5E78D
:1013C000B88F001060A10010A88E0010F0B5DE46A6
:1013D00057464E464546E0B58FB00B900021794BFD
:1013E0008200D458894683E029002000FFF7D2FD0F
:1013F000804602684368921BBB41002B09DD4346CF
:101400001A685B680B9800F01FFC002398460026C2
:101410008AE0002B01D1002AF1D10021584600F0CA
:10142000D9FD0700A84215D143461A685B680892A7
:10143000099343469E68DB689846002E10D0290029
:101440002000FFF7E5FE037899461B021F43276142
:10145000002069E05C4B5D4A5D488E2101F026F971
:101460005C4B5A4A5A48922101F020F92369002B1B
:1014700000D177E0BB4219D1069807990023424278
:101480008B4100920193089A099B0CA8FFF7C8FDB5
:101490000C9A0D9B00210491013103910295414664
:1014A000019100962000FFF747FF16E04A4B474A9C
:1014B0004748A12101F0FAF8069A079B002B01D1B9
:1014C000002A52D120682900FFF774FE290020006D
:1014D000FFF79EFE037801330370002323616268E7
:1014E000BFF35F8F13608AF310880120002861D05A
:1014F0000CA8FFF7FDFE0C9E0D9F00220023089212
:1015000009936268EFF3108A72B61368002BFCD05F
:10151000BFF35F8F23689B465D7B002D00D063E7A0
:1015200000239846002600206368BFF35F8F0022E7
:101530001A608AF31088002ED8D04B461F022F4322
:1015400041463800B047069007916268EFF3108A71
:1015500072B61368002BFCD0BFF35F8F079B002B84
:1015600000DA83E7079B002BA6DD2369002BA9D0B7
:10157000BB4219D10CA8FFF7BBFE0C9A0D9B069835
:101580000799009001910CA8FFF74AFD0C9A0D9B5A
:101590000021049101310391029541460191009689
:1015A0002000FFF7C9FE98E70B4B084A0848A42122
:1015B00001F07CF80FB0F0BCBB46B246A946A0468D
:1015C000F0BDC04658530020E08F001090A10010DD
:1015D000A88E0010F88F00100490001010B50C4B6E
:1015E0005B68002B04D00B480A21FFF731FC10BDCB
:1015F000074C094A20682300102100F040FC03201A
:1016000000F066FA03212000FFF73AFEEBE7C04640
:101610009C32002074550020CD0F001010B5064BF1
:101620005B68002B01D0044810BD044B044A0548F8
:101630005E2101F03BF8C0469C3200204090001033
:10164000F4A00010A88E001070B506000D00182040
:1016500002F078FE04000C490200280000F016FC9D
:1016600020601021280002F083FEA06001212800E4
:1016700002F07EFEE060300000F02AFA3100200027
:10168000FFF7FEFD200070BDCD0F0010F0B5DE4667
:1016900057464E464546E0B58DB0060090461F00C1
:1016A000169B9A46179B994618AB1B7807932723DE
:1016B00002AA9446634400221A7021E0010030001F
:1016C000FFF7A6FD00783CE00698002B5CD0079B56
:1016D000002B59D04946D04704000D0003000B43AE
:1016E00059D0002940DB08A8FFF702FE089A099BA1
:1016F0000094019508A8FFF793FC089B9846099F62
:101700007268EFF3108B72B6136859424B41D9B22D
:101710000691002BF8D1BFF35F8F273302AA9446BE
:10172000634404930023039302934B46019353466F
:10173000009342463B003000FFF7FEFD0400051E0B
:10174000BCD17368BFF35F8F002119608BF31088E1
:10175000002D17D0272302AA944663441B78002B40
:10176000B2D100022043B0E700236242AB410092B5
:10177000019342463B0008A8FFF752FC089B98469D
:10178000099FBDE7012040420DB0F0BCBB46B24608
:10179000A946A046F0BD0698F6E7F0B5C64600B5E6
:1017A00084B00500884616001F000AAB1C78FFF7BE
:1017B00035FF0294019700962A004346FFF766FF23
:1017C00004B080BCB846F0BDF0B5C64600B5050013
:1017D0000C1E42D04268EFF3108772B61368002BDC
:1017E000FCD0BFF35F8FE6B22B689846310018003B
:1017F000FFF748FC00282AD02B69A34213D0240A03
:10180000E4B231002800FFF703FD0378A34211D0B2
:1018100000206B68BFF35F8F00221A6087F3108887
:1018200080BCB846F0BD0E4B0E4A2C210E48FF314D
:1018300000F03CFF3100404600F0D6FB0028E8D124
:101840000A4B084A99210848490000F02FFF2B69EC
:10185000A342DED100232B61DBE70020E0E7C04696
:1018600064900010DCA00010A88E0010889000107A
:1018700010B50400FFF7D2FE2100FFF7A5FF10BD51
:10188000407D7047F0B587B00500100019000E9C30
:1018900013000B4301D101200021A5600C9B2361A3
:1018A000206061600D9B6361CE17370070400200BD
:1018B00071400B00921BBB4104A8FFF72AFD049A5C
:1018C000059B012102910194044900912800FFF732
:1018D000DDFEE060C043C00F07B0F0BD4112001054
:1018E00010B50400C168002901D1002010BD806836
:1018F000FFF76AFF0023E360F8E7000030B587B028
:1019000004000D00EFF30583002B20D10622524284
:10191000D31712196B418B4202D803D1824201D9ED
:101920000022002304A8FFF769FB02A8FFF7E0FCF0
:1019300002980399049A059B121A8B41002B0BDC29
:1019400008D02000290000F0DBF807B030BD1448B3
:1019500000F044FF002AF4D0124A049805990023AD
:101960000093FFF71AFF002813DAEAE70E4B1A6814
:10197000EFF3108172B61368002BFCD0BFF35F8FBA
:10198000094B1B68BFF35F8F00221A6081F3108838
:1019900020BF04980599FFF7E9FA0028E6D0D0E7C0
:1019A0008C900010C11200107455002000B583B057
:1019B00002000B006846FFF7ACFC00980199FFF7A6
:1019C0009DFF03B000BD10B5FA2292000023002154
:1019D00002F0F2FBFFF7EAFF10BD000030B583B064
:1019E00005000C00EFF30583002B0FD10B4A0023F9
:1019F0000093FFF7D2FE00280BDD20BFFFF738FF72
:101A000028002100FFF7B2FA03B030BDFFF7AEFAAD
:101A1000FAE728002100FFF7A9FAF5E7C112001044
:101A200010B5002B02DB0260436010BD024B034A7D
:101A300003483F2100F03AFEA08D0010D4A1001011
:101A4000BC8D001070B5EFF305801038EFF3108CEB
:101A500072B6194B1B68002BFBD0BFF35F8F0122BE
:101A60001300834015494B6315490B6015490978EC
:101A70000C00C440224213D0104A546A124A850016
:101A8000AA58944205D3114AAA580E4C9943217082
:101A900007E00A4A031D9B0099589950002200E074
:101AA0000022BFF35F8F044B002119608CF3108874
:101AB000002A00D0904770BD280100D000400540AA
:101AC0003C700540C055002084550020903F002008
:101AD00010B50100024A034B1800FEF7FFFD10BDD0
:101AE000DC900010B8550020044B5B6A034A906AF2
:101AF0001900536A9942F9D17047C0460040054029
:101B0000084B5B6A01E0074B5B6A8B42FBD301E049
:101B1000044B5B6A8B4203D1024B9B6A8342F7D32F
:101B20007047C04600400540F0B583B004000D008A
:101B3000FFF7DAFF06000F0022002B0092197B410D
:101B4000994202D804D1904202D901225242D317BD
:101B50006846FFF765FF00980199FFF7D1FF03B0D2
:101B6000F0BD000010B5002807DB064B9A6A054B54
:101B70009B6A9B1A8342FAD310BD0021FFF7D4FF62
:101B8000FAE7C0460040054010B50A4B984207D816
:101B900043011B1A9B001818C000FFF7E3FF10BD9C
:101BA000FA2292000023002102F006FBFFF7BCFF9F
:101BB000F5E7C0469BC4200070B504000E00EFF3AB
:101BC000108572B61B4B1B68002BFBD0BFF35F8FD9
:101BD000002E1CD02000FEF78FFE174B83420BD047
:101BE00019002000FEF7A2FE01212000FEF774FE7E
:101BF0000123A340114A1360114BA400E650BFF328
:101C00005F8F0C4B00221A6085F3108870BD0C4B5F
:101C1000A2000021D1500122A2400A490B7893432F
:101C20000B7005492000FEF7B3FF00212000FEF7EE
:101C300053FEE4E7280100D0451A00103860054043
:101C4000903F0020C0550020F0B5DE4600B584B0BE
:101C50000400150001921E000293FFF745FF039553
:101C60008E4202D84ED185424CD9EFF3108B72B61A
:101C7000274B1B68002BFBD0BFF35F8F254A1778DB
:101C80000125A540EBB23B431370234B5D63221D3E
:101C900092000199D150214AA100029888501B6AF4
:101CA0002B4212D11C4B1B6C2B4208D00020BFF3DF
:101CB0005F8F174B00221A608BF3108823E0184BBC
:101CC000184A1948C52100F0F1FCFFF70DFF8E42BC
:101CD00014D802D1039B834210D80E4B1B78BB4211
:101CE0000ED00D4B1D625D631F22224001239340E5
:101CF0000E4A1360074B1F700120D8E70020D6E77B
:101D00000120D4E7012004B080BCBB46F0BDC04632
:101D1000280100D0C0550020004005408455002017
:101D200000910010B8A100102491001080E200E0A2
:101D3000EFF3108C72B60B4B1B68002BFBD0BFF37C
:101D40005F8F01238340084A136208490A789A4347
:101D50000A70BFF35F8F034B00221A608CF3108868
:101D60007047C046280100D000400540C055002003
:101D700010B5002908D0037B8B4205D300684B00C7
:101D80005B18033BC01810BD024B034A034868218F
:101D900000F08CFCDC8E00102CA20010F88E0010DD
:101DA000F8B506000C001500FFF7E2FF0700002C55
:101DB0000DD0002D11D0AC4215D029003000FFF716
:101DC000D7FF84703B78002B13D13D70F8BD0A4BD0
:101DD0000A4A0B486F2100F069FC0A4B074A084881
:101DE000702100F063FC084B044A0548712100F0A3
:101DF0005DFC43703D70E9E73C8F001018A20010B5
:101E0000F88E0010488F0010548F001070B5060037
:101E10000D001400002914D0002A14D043688068F3
:101E20009847002806D0220029003000FFF7B8FFAD
:101E3000280007E02A0021003000FFF7B1FF200052
:101E400000E0100070BD0800FCE770B5050000233D
:101E5000437301338373037BC373012406E02100C2
:101E60002800FFF785FF0134E4B24470297BA142CA
:101E7000F5D82800FFF77CFF0023437070BD10B534
:101E8000017342608360FFF7E0FF10BDF8B5050005
:101E90000E0017001021012002F06AFA040003214D
:101EA000280002F065FA20603B0032002900200083
:101EB000FFF7E5FF2000F8BDF0B5C64600B5050008
:101EC0000C1E03D1200080BCB846F0BDFFF750FFC8
:101ED0004678002EF6D031002800FFF749FF4778FA
:101EE00000239846437021002800FFF741FF434636
:101EF0004370320021002800FFF788FF04003900FA
:101F00002800FFF7D9FF020021002800FFF77EFF1D
:101F10000400D7E7F0B5C64600B504000D00170071
:101F2000002927D0FFF724FF4378002B28D183789E
:101F3000002B2BD101782000FFF7BEFF0600804662
:101F4000002F0AD0E17B002926D1A37B002B03D1EF
:101F5000E37B002B25D1A573E5734346002B26D1E7
:101F600029002000FFF704FF00234370300080BCED
:101F7000B846F0BD114B124A1248382100F096FBCA
:101F8000114B0F4A0F483A2100F090FB0F4B0C4ABF
:101F90000C483B2100F08AFB2000FFF7E9FE45706A
:101FA000D3E70B4B064A0748422100F07FFB310084
:101FB0002000FFF7DDFE00238370D1E76091001061
:101FC00004A20010689100109C910010C4910010B0
:101FD000908F001070B504000A00457B2900FFF7C0
:101FE00099FF6073280070BD70B506000C1E40D0CC
:101FF000437B8B4207D0FFF7BBFE050081780029A9
:1020000006D1002036E00121FFF7E4FF012031E096
:102010003000FFF7ADFE0178A1420DD03000FFF790
:10202000A7FE4178A1420AD00029F7D1124B134AEA
:1020300013486B3100F03AFB6B78037001E06B786A
:1020400043700023AB706B70012221003000FFF75A
:1020500061FF0200717B814205D03000FFF7D6FEA0
:102060007073012006E0074B044A0548712100F017
:102070001DFB002070BDC0467C8D0010ECA100103F
:1020800068910010E891001070B5046BE30701D46B
:10209000200070BD02003032C0239B0113430A4A66
:1020A0001A60456A836AAD01ED18AD02062000F0A2
:1020B000BDF9064901F0E8FC0100280001F0E4FC4C
:1020C0000021FFF731FDE3E7010300004E0E0000A1
:1020D00070B504000E001500FFF7D6FF22002C3269
:1020E000E36A5E40354080235B0113431D6020633B
:1020F00070BD000070B505000C00062000F096F9D8
:10210000C000210001F0C0FCC60908D00E4B9E4261
:1021100016D87F230340013334005E0800E0012419
:102120006C62AE62002200212800FFF7D1FF06207A
:1021300000F07CF98000A101891901F0A5FC70BDB7
:102140000026024CECE7C046FEFF0000FFFF000047
:1021500010B505394901013AD2001143002B09D0CD
:1021600002220A43012B07D0002111436E22FFF700
:10217000AFFF10BD0022F4E70421F6E7002909D0E3
:102180000A22064B9C46604443425841044B40009F
:10219000C252704780225200F3E7C0460080FCBF65
:1021A0009455002070B505000C00062000F03EF9A3
:1021B000061E27D0164B9D4226D08022D203154BF7
:1021C0001A60154B1A60154B9B6811009943FAD1A0
:1021D00000212800FFF7D2FF21002800FFF78AFF27
:1021E00006000023012208212800FFF7B1FF2A0082
:1021F0002C3280239B01134310221A60084B2B635F
:102200000323AB64300070BD80221204D7E7C046C0
:102210000080034000E0004000F0004000C00040AB
:1022200001030000F8B5DE4657464E464546E0B588
:1022300006000F0015000A9A934250D31A0E9246D8
:102240001B0298460A9A00234046514601F05AFC68
:1022500081467400A419A4002F4B9C466444636813
:10226000834200D26060331FDBB29B46012B3CD916
:10227000C0239B012343802212011A60274BB20026
:10228000D158002907D0586901F0FEFB0130430006
:102290001B18033BFDD26D0123685D40E0222A40FC
:1022A00080235B0123431A605A46012A28D98023E0
:1022B0009B012343802212011A604B4663604A4609
:1022C00000234046514601F01DFC144BB6009851C6
:1022D0000120F0BCBB46B246A946A046F8BD104B53
:1022E000104A1148332100F0E1F9012FC0D1C02379
:1022F0009B01234303221A60A368DB07FCD5CAE7CE
:102300002168794003220A401A60A3680125BD4074
:102310001D42FAD0CBE7C04600800040B440002008
:102320000892001038A200101C92001030B583B043
:102330000C2000F011F9FEF7B1F900280DD00023B0
:1023400004E02E4A99002E4888500133092BF8D911
:102350002A4B2C4A5A6203B030BD2B4B00229A679D
:1023600000F06CF9294B01221A60274B5B6C012BA2
:10237000FBD1274B03221A60234B9B6B012BFBD114
:10238000013300930433234A0121234800F054F819
:1023900005230093214A0121214800F04DF8214BEB
:1023A0000093002202210420FFF73CFF1E4D009500
:1023B0002B00002201210520FFF734FF104C009470
:1023C0002300002200210720FFF72CFF00942300A8
:1023D000002200210820FFF725FF0A4B009323006D
:1023E000002200210920FFF71DFF00952B0000228D
:1023F00000210620FFF716FFADE7C046B4400020DD
:10240000006CDC021BB70000008000403CB00040C4
:1024100030B00040002F685900800240008C864791
:1024200000C00240001BB70040597307014B8000F9
:10243000C0587047B4400020F0B5C64600B504004F
:102440000E0017001D00374801F01EFB8046364B7A
:10245000FA18364B9A4239D80100380001F014FBC3
:102460000200103A98235B009A4235D86B1E062B67
:1024700038D8069B013B062B34D83F09474537D354
:102480002D04069B1B031D432368002B36DB284BC2
:102490009C4244D080235B01264A1360264A136085
:1024A000264A926819009143FAD12660A060221D45
:1024B000C0239B01134321221A602268002AFCDA00
:1024C000E56008221A6080BCB846F0BD1C4B1D4A6E
:1024D0001D48112100F0EAF81C4B1A4A1A4819212C
:1024E00000F0E4F81A4B174A17481C2100F0DEF8F8
:1024F000184B144A1448232100F0D8F822683F23CF
:102500001340B342C3D1A3681B051B0D8342BED148
:10251000E368EE22D2021340AB42B8D1D3E7802366
:102520009B01B9E7001BB70080E84BD380F8A932C4
:1025300000C0024000E0004000F0004000C0004049
:102540005C92001048A20010BC920010F49200109F
:10255000109300105C93001080239B000343014AFA
:10256000D362704700800540024B1A68024B5A60E4
:102570007047C0465C4500200080054010B5174BF1
:102580008022D2051A60164B164A1A6000290AD01A
:10259000154BE022D2041A60002809D1124B802288
:1025A00012061A6010BD0D4BE022D2041A60F3E748
:1025B00043011B1A9B00181800010C4B1860802364
:1025C0005B04984202D3094B094A1A60FFF7CCFF1B
:1025D000054B8022D2051A60E4E7C04600B00540F2
:1025E00008200140FCFF010000A005405C450020E0
:1025F000FFFFFF0010B5030010000C4A8024E40523
:102600001460002B0DD001221343094A094CD461F8
:10261000094C5C401462516293620021FFF7AEFFE7
:1026200010BD034B0022DA61F7E7C04600B0054059
:1026300000800540D3C007B02D3FF84F074BAA22BA
:1026400012011A602132FF32DA60054B054A1A6026
:10265000024B5B68002BFBDA7047C046004002402B
:102660000060024000B0FA0000BEFDE703000A4A25
:102670001268002A08D0084A1068C318074A9A420C
:1026800006D3054A13607047034A05491160F2E713
:1026900001204042F7E7C0465441002000000420DA
:1026A000C455002010B5FFF7DFFF000030B583B040
:1026B0000D001900002A0BD0074B084C0192009323
:1026C0002B000200200002F017F80120FFF7CCFFDA
:1026D000034B1A00F1E7C04678930010889300106E
:1026E000349C001070B52B4B2B4A1A602B4B2C4A94
:1026F0001A602C4B9A682A4B9343FAD12A4C01E07A
:1027000008CC9847294B9C42FAD3FFF70FFE234B86
:10271000274A1A60234B9B68DB43DB01FAD1254B28
:1027200040229A675A671A67DA66234C09E0234BFE
:10273000234A24488721FFF7B9FF2000FEF7E5FB75
:102740000834214B9C4209D22368002BF5D0012B81
:10275000EDD12000FEF7E6FB0834F2E71B4DA96837
:102760001B4CC022200001F029FEAC60EFF3058372
:10277000002B00D000BEFDF7F3FFFEF745FBFEF790
:102780002DFF144C01E008CC9847134B9C42FAD320
:1027900070BDC04600E00040BFCDFBFE00F0004031
:1027A000FE7F3C0000C0004098380020A838002080
:1027B000FFFFFF0100F0014088380020B8930010AF
:1027C00054A20010D89300109838002000ED00E0CB
:1027D00000000020A8380020B03800200FB400B559
:1027E00083B0084801F058FF049B002B07D005A9CF
:1027F0000191180001F060FF034801F04DFF012036
:10280000FFF732FF14940010B49A0010704710B50F
:10281000002802D00B684968984710BD01000020CD
:1028200007E083001B185B00501C08601078C0187C
:1028300030380A681378303BDBB2092BF1D9704786
:10284000F0B5DE4657464E464546E0B583B0934662
:102850001F000C9B9A460D9C0E9B99460F9B9B0755
:1028600003D0B8460F00060022E00192A346884636
:102870004E46B9460700B44207D2551C4B46414666
:102880002020B84701342A00F5E73D004F465C465A
:10289000019B9B46B1464646B84637002E0007E0EE
:1028A000013C551C5346185D43463900B0472A0089
:1028B000002CF5D135003E0047460F9B9B0707D4FF
:1028C000100003B0F0BCBB46B246A946A046F0BD1E
:1028D000B0464E46B9462F005D46531BB342EFD279
:1028E000541C4B4641462020B8472200F5E7F0B57E
:1028F000CE46474680B585B0944698460C9D0D9CC3
:102900000EAB1B789946109A119B129EB7071CD4E8
:10291000002B0CD0F7070AD54F46002F02D10C37F9
:10292000374204D0013B02E030272F550134944256
:1029300001D21F2CF8D9F70707D59C4205D21F2CCE
:1029400003D830272F550134F5E7F70612D5770560
:1029500005D4002C03D0944221D09C421FD00F9A62
:10296000102A32D00F9A022A37D01F2C0AD83022D0
:102970002A5501341F2C05D84A46002A33D02D226F
:102980002A5501340396029301940095434662460A
:10299000FFF756FF05B0C0BCB946B046F0BD621E99
:1029A000012C10D00F9F102F0BD014000F9A102A5B
:1029B000D8D1B206D6D51F2CD4D858222A550134E6
:1029C000D3E7023CCBE71400C9E7B206EED41F2CD4
:1029D000ECD878222A550134C7E71F2CD2D86032B0
:1029E0002A550134C1E7720703D52B222A55013439
:1029F000C8E73207C6D520222A550134C2E7F0B510
:102A0000DE4657464E464546E0B593B081468A4677
:102A1000089209931CAB10CB1B789B461E9D219BF3
:102A20009846002C03D1102342469A4390468023B7
:102A3000DB0046461E4042461A4212D0002C22D0ED
:102A400000260EE03033D9B2771C0AAB9955290025
:102A5000200001F019F8AC4216D31F2F14D83E0005
:102A600004002900200001F00FF8CBB2092BE9D9AE
:102A70004246920605D54121C918C9B20A39C9B2E0
:102A8000E2E76121F8E7270043460693209B059380
:102A90001F9B049303955B46029301970AAB009337
:102AA000099B089A51464846FFF721FF13B0F0BC36
:102AB000BB46B246A946A046F0BDF0B5DE46574635
:102AC0004E464546E0B597B00A900B910C929A4657
:102AD000209B9946219F22AA13789B46249B099309
:102AE000259C289B98464A463A4302D1103293438C
:102AF00098468022D20045461540434613420AD0EC
:102B00004A463A4341D000252E0053460D934D4688
:102B1000099B9A461BE02E0053460D934D46099B98
:102B20009A4614E03033DAB2731C99460EAB9A55CC
:102B3000524623002800390000F0E4FFBC4226D8AA
:102B400019D04B461F2B1CD84E4605000F0052468D
:102B500023002800390000F0D5FFD3B2092BE1D9BA
:102B60004246920605D54122D218D2B20A3AD2B2D2
:102B7000DAE76122F8E7AA45E3D94E460D9B9A466B
:102B800008E04E460D9B9A4604E0002602E04E46C1
:102B90000D9B9A4643460693279B0593269B0493D9
:102BA000099B03935B46029301960EAB0093534639
:102BB0000C9A0B990A98FFF79AFE17B0F0BCBB4627
:102BC000B246A946A046F0BDF0B5DE4657464E4691
:102BD0004546E0B591B0804689460C929A461A9CCB
:102BE0001B9D22002B002000290001F006FA00287E
:102BF00000D0ECE001225242D44B2000290001F029
:102C0000F7F9002800D0E2E001225242D04B200028
:102C1000290001F0D7F9002800D0D8E000220023D5
:102C20002000290001F0CEF9002800D0E4E006944D
:102C300007958023DB001E9A1A400D921E9A1A42B5
:102C400001D106231C930698079902000B000892F5
:102C5000099303000A00024300D1D9E0080D4005A2
:102C6000400DBC4EB44660440A03120B1E00BA4B22
:102C700013431F0001F0D4F9B84AB94B01F063F9CE
:102C8000B84AB94B01F040F9089009910022B74BBE
:102C90003000390001F033F9B54AB64B01F053F971
:102CA00002000B000898099901F02EF901F0D0F903
:102CB000834601F0B5F906000F00AF4AAF4B01F0B3
:102CC00042F90022AE4B01F01FF901F0C1F9089062
:102CD000AC4AAD4B3000390001F035F906000F0069
:102CE000089801F09DF9A94AA94B01F02CF90200BE
:102CF0000B003000390001F002F906000F0002005D
:102D00000B0001F020F90A900B91089BA14A944610
:102D1000634400210022089109921B0509930023B6
:102D2000089332003B003000390001F0EDF80E90BE
:102D30000F9132003B0000208021C90501F0DFF82F
:102D400006000F000022944B0A980B9901F0E1F85D
:102D50000022924B01F0D8F802000B000A980B9960
:102D600001F0D7F800228E4B01F0CEF802000B00E4
:102D70000A980B9901F0CDF802000B0030003900E1
:102D800001F0C2F802000B000E980F9901F0C1F893
:102D90000022714B01F0B8F8089A099B01F0D3F8B2
:102DA00006000F0008960997069A079B01F020F984
:102DB00000282FD001235B429C46E3440022774B3E
:102DC0003000390001F0A5F80890099122E01E9B1F
:102DD00004931D9B03931C9B0293009401955346FF
:102DE0000C9A4946404600F0FFF811B0F0BCBB46D3
:102DF000B246A946A046F0BD0021002206910792E6
:102E0000069480231B069C46AC446346079310E758
:102E100000239B465B466333C62B20D804261E9BAB
:102E20001B0528D5089A099B190011430FD05D4A4C
:102E30005D4B0698079901F0D3F800287AD000225C
:102E40005A4B0698079901F0BDF8002872D01C9BD8
:102E50005B4506DD5A469B1A013B1C9303E00526A1
:102E6000DDE700231C938023DB001E9A1A431E9289
:102E7000002600239B461D9B9E4265D29F1B02237A
:102E80001E9A1A400A921E9A134202D0002E00D0B7
:102E900000275B46002B07D0089A099B06980799E4
:102EA00001F037F806900791002200232000290046
:102EB00001F088F8002800D07CE03D4B1E9A1340BA
:102EC000049303971C9B0293069B079C0093019419
:102ED00053460C9A4946404600F086F8002E00D131
:102EE00083E71E9B9B0671D54525441C5346020073
:102EF00049462800C0475A46D317D2185A400523DE
:102F00000593013E0496002303930A3302935B4624
:102F1000DB0F019300925346220049464046FFF7DB
:102F20006EFD0A9B002B00D15FE7020047460C9E16
:102F30001D9D53E01C9B002B9DD00D9B002B9AD018
:102F40001C9B013B1C9396E7002798E7FFFFEF7F50
:102F5000FFFFEFFF01FCFFFF0000F03FFB799F50F8
:102F60001344D33FB3C8608B288AC63F0000F83FA4
:102F700061436F63A787D23F71A379094F930A40DA
:102F80000000E03F1655B5BBB16B0240EF39FAFEC9
:102F9000422EE63FFF03000000002C4000002440CA
:102FA000000018402D431CEBE2361A3F80842E416E
:102FB000FFF7FFFF069C079D2200290080200006E6
:102FC000844661440B000692079376E765258CE7FB
:102FD000541C534649462020B8472200931BAB425D
:102FE000F6D3100001E7C046F0B5DE4657464E4620
:102FF0004546E0B595B00690079193469946209FC7
:103000001E9A1F9B1000190000F0F7FF002831D115
:1030100001225242BF4B1E981F9900F0D3FF002897
:1030200037D101225242BC4B1E981F9900F0E0FF9D
:1030300000283DD10022B94B1E981F9900F0D8FFFF
:10304000002850D10022B64B1E981F9900F0BAFFFD
:10305000002848D1002200231E981F9900F0B2FFDB
:10306000002850D100239846229B5B0500D4B6E08F
:10307000002458E0229B0393219B02930323019396
:10308000A84B00934B465A4607990698FFF7D8FB82
:103090000EE1229B0393219B029304230193A24BF5
:1030A00000934B465A4607990698FFF7C9FBFFE085
:1030B0000423229A1A4022990B4210D09B4B002ADB
:1030C0000FD0042222990391219902910192009339
:1030D0004B465A4607990698FFF7B2FBE8E0944B37
:1030E000EDE70322EEE7229B0493219B03930297D3
:1030F0001E9B1F9C009301944B465A4607990698C5
:10310000FFF762FDD4E01E9A1F9B0020002100F013
:10311000F6FE1E901F9101239846A5E70CAB3022C6
:103120001A55013F01341F2C01D8092FF6D81E98DB
:103130001F9900F08DFF050000F072FF02000B00E8
:103140001E981F9900F0DBFE7A4BFA009B181A6854
:103150005B680A920B9300F0F6FE0890099100F06C
:103160009BFF060000F058FF02000B000898099929
:1031700000F0C5FE0890099100226F4B00F038FF67
:1031800000282ED00136300000F046FF02000B0070
:103190000A980B9900F01CFF002801D00135002689
:1031A000002F2CD1280000F03BFF02000B001E98DE
:1031B0001F9900F0A4FE06000F0000225E4B00F0F5
:1031C00001FF002846D100225B4B3000390000F09F
:1031D0000FFF00283ED1EB073CD501353AE006272A
:1031E00046E70022544B0898099900F0EBFE0028AE
:1031F000D6D1002E01D0F307D2D50136D0E7AA46AA
:103200001F2C11D8013F0A21300000F03DFC651C45
:1032100030310CAB19550A21300000F035FC092E75
:103220000ED906002C00EBE755461F2C0CD87B1E50
:10323000002F09D00CAA302111551F000134F4E7EA
:103240002B0055461C00F0E71F2C03D80CAB2E2298
:103250001A5501341F2C10D80A21280000F0ECFB6D
:10326000661C30310CAB19550A21280000F0E4FB34
:10327000051E01D03400EDE734000323229A1340E9
:10328000012B1CD01F2C06D84346002B32D00CAB90
:103290002D221A550134229B0393219B0293019402
:1032A0000CAB00934B465A4607990698FFF7C8FAAD
:1032B00015B0F0BCBB46B246A946A046F0BD219B66
:1032C000002B13D04346002B02D10C3313420FD0F6
:1032D000219B013B2193190003E00CAB30221A55CE
:1032E00001348C42CED21F2CF7D9CBE72199F8E7D5
:1032F0002199F6E7229B5B0704D50CAB2B221A55CC
:103300000134C8E7229B1B07C5D50CAB20221A55F8
:103310000134C0E7FFFFEFFFFFFFEF7F65CDCD4139
:1033200065CDCDC130940010349400102494001069
:103330002C94001000A400100000E03FF0B5DE4621
:1033400057464E464546E0B593B08246884693467A
:103350001193002900D10DE300255646119B1878E2
:10336000002800D109E3252809D06C1C5B462A00FF
:103370004146B047119B013311932500EEE701331D
:103380001193002720E001231F43013211920124F1
:1033900018E002231F4301321192012412E004239A
:1033A0001F430132119201240CE008231F43013214
:1033B0001192012406E010231F43013211920124CF
:1033C00000E00024002C09D0119A1378203BD9B2D8
:1033D0001029F6D88B00C849CB589F46119B1A7804
:1033E0001300303BDBB2092B10D92A2A13D00B94DF
:1033F000119B1A782E2A1ED0119A1378683BD9B2E5
:10340000122959D88B00BD49CB589F4611A8FFF708
:1034100005FA0B90ECE71C9B1A1D1C921B68002BF5
:1034200004DB0B93119B01331193E1E70222174355
:103430005B420B93F6E78022D20017435A1C11928D
:103440005A781300303BDBB2092B0BD92A2AD3D18F
:103450001C9B1A1D1C921C68002C08DB119B01335D
:103460001193C9E711A8FFF7D9F90400C4E70024B4
:10347000F4E780235B003B43511C119151786C2988
:1034800001D01F0018E0C0239B001F43023211929D
:1034900012E080233B43511C11915178682901D0DF
:1034A0001F0009E0C0231F430232119204E0802371
:1034B0005B001F4301321192119B1878672818D8BE
:1034C000252800D24CE20300253BDAB2422A00D97B
:1034D00046E293008A4AD3589F4680239B001F43AD
:1034E00001321192E8E780235B001F430132119201
:1034F000E2E7782800D933E2692800D230E20200FE
:10350000693AD2B2012393407E4A134211D11A067E
:1035100000D500E25B0500D422E21C9B1A1D1C9220
:103520001B689A46002C00D0B2E101225242534659
:103530008EE16F280ED006D858283DD0622804D1DD
:1035400002239C4608E0782839D010239F43063B8D
:103550009C4601E008239C46582833D0692803D0B4
:10356000642801D00C2297437A0501D501229743A4
:1035700069282AD0642828D0BA0500D59FE0FA052A
:1035800000D5C1E07A0600D4D3E01C9A111D1C912D
:103590001168FF220A4005970B9B0493039463462E
:1035A00002930023019300925B462A0041463000BB
:1035B000FFF725FA050027E010239C46CCE71023EF
:1035C0009C46C9E720221743C8E7BA0520D4FA056C
:1035D00050D47A0666D51C9A111D1C911168FF22E1
:1035E0000A40D0171118414005970B9B0493039490
:1035F00063460293D20F019200915B462A00414636
:103600003000FFF7FCF90500119B01331193A5E68B
:103610001C9A073207218A43110008311C91116856
:1036200053689946DB170C930D930C9A0D9B100071
:1036300048400E904A4653400F930E980F990C9AAB
:103640000D9B801A99410E900F9108970B9B079341
:10365000069463460493002305934B46DA0F0292C7
:10366000009001915B462A0041463000FFF725FAA1
:103670000500C9E71C9A111D1C911268D01711187A
:10368000414005970B9B0493039463460293D20F2A
:10369000019200915B462A0041463000FFF7AFF9E6
:1036A0000500B1E73A0605D51C9A111D1C910023AF
:1036B000D25E96E71C9A111D1C91126891E71C9A24
:1036C000073207218A43110008311C9108970B9B90
:1036D000079306946346049300230593029353686B
:1036E0001268009201935B462A0041463000FFF7C2
:1036F000E4F9050088E7C04664A20010A8A2001003
:10370000F4A20010419000001C9A111D1C91059715
:103710000B9B049303946346029300230193136865
:1037200000935B462A0041463000FFF768F9050028
:103730006AE73A0606D51C9A111D1C9112681204FC
:10374000120C28E71C9A111D1C91126823E74628C9
:1037500019D01C9B0733072293431A0008321C928E
:1037600004970B9A039202941A685B680092019383
:103770005B462A0041463000FFF736FC0500119BEE
:1037800001331193EAE520231F43E2E7672801D0C4
:10379000472802D180231B011F43452801D0472819
:1037A00001D120231F431C9B0733072293431A0098
:1037B00008321C9204970B9A039202941A685B6871
:1037C000009201935B462A0041463000FFF7FCF966
:1037D0000500119B01331193C0E502231A003A4002
:1037E00091463B421DD001241C9B1A1D1C926F1C4C
:1037F00018785B462A004146B0474B46002B14D14F
:10380000119B013311933D00A8E5571C5B464146CF
:103810002020B04723003A005C1C9D42F5D81500DB
:10382000E2E701232A000B9DF6E73A00B1460B9E22
:1038300006E0571C5B4641462020C8472C003A0052
:10384000651CA642F5D817004E46D9E701330A0099
:103850001978002902D0511E002AF7D152469B1A2E
:103860008022D200390011408946174202D0A3427B
:1038700000D9230002221100394010913A4209D0A8
:103880002A00250057469A4633004E46994621E0C5
:1038900022004CE62A004546A04606E0541C5B4642
:1038A00029002020B0473B0022005F1C0B99994261
:1038B000F4D84446A8463B00250057469A463300B4
:1038C0004E46994606E01D000137541C5B464146B2
:1038D000C84722003878002804D0002EF4D06B1E90
:1038E000002DF0D1150053464E46109A002A03D100
:1038F000119B0133119331E50B9F2A0006E0551C03
:103900005B4641462020B04723002A005C1C9F42B2
:10391000F5D81500ECE721233B431C9A111D1C919F
:103920001268059308230493039408330293002339
:10393000019300925B462A0041463000FFF75FF892
:103940000500119B0133119308E56C1C5B462A00AE
:1039500041462520B047119B013311932500FDE41A
:103960006C1C5B462A004146B047119B0133119302
:103970002500F3E40A4B9A46EEE4B2465D450DD3CA
:103980005B465A1E5B4641460020D047280013B0D4
:10399000F0BCBB46B246A946A046F0BD2A00F1E7FE
:1039A0000D28001000B585B0029003910121044854
:1039B000009313004A4202A9FFF7C0FC05B000BD06
:1039C0000F28001001480421014B1847D032002075
:1039D000013A0010014B9B6818470000D0320020CC
:1039E00010B5010018231B8814221088984710BDB9
:1039F00010B5010018231B8816221088984710BDA7
:103A0000F0B5C64600B507000E0000250123984614
:103A100000E00135B5420AD2AC003C192068FFF73E
:103A2000DFFF20600028F4D100239846F1E74046EC
:103A300080BCB846F0BD0000124A936F9B0815D2B7
:103A40009066D166002905D0FFE7FFE7FFE7516FD9
:103A5000106F704704B580210906C2175140002835
:103A600000D0C84304F0C8FF002104BDF0B5146EB7
:103A7000556E576F166FFFF7E3FF1466556657676D
:103A80001667F0BD000000D0114A936F9B0813D257
:103A900010665166002905D0FFE7FFE7FFE7516F89
:103AA000106F704704B5002801D00020C04304F017
:103AB000A3FF002104BDC046F0B5146E556E576FCC
:103AC000166FFFF7E5FF1466556657671667F0BD7A
:103AD000000000D094464A4A926F9208624601D292
:103AE00028E0C046F0B5464E346E756E776F366F7F
:103AF00000F020F89446424A1466556657671667E8
:103B00006246F0BD94463E4A926F9208624601D2E8
:103B100054E0C046F0B53A4E346E756E776F366F2E
:103B200000F04CF89446364A146655665767166797
:103B30006246F0BD002B24DB11D000293EDA00B52F
:103B4000C943404200D1013100F038F8C943404236
:103B500000D10131DB43524200D1013300BD002AC4
:103B6000EBD1002801D1002905D00020C90FC907D9
:103B700001D1C043410800B504F02EFF002200230C
:103B800000BD00B500290ADBDB43524200D10133FE
:103B900000F014F8C943404200D1013100BDC943CF
:103BA000404200D10131DB43524200D1013300F0E9
:103BB00005F8DB43524200D1013300BD002923D177
:103BC000002B18D1002A0CD0BC460D4F38667A66FF
:103BD00000210023FFE7FFE7FFE77A6F386F6746B2
:103BE0007047002801D00748010000B504F0F4FE3A
:103BF0000022002300BD02000B00002000217047BE
:103C0000000000D0FFFFFFFF002B00D0BFE0130C2F
:103C100028D1002AE7D080B4114F39667A66FFE7D1
:103C2000FFE730B4040C7B6F396F1B0423433B6602
:103C30007A66FFE7FFE7FFE7C04684B27B6F3D6F20
:103C40001B0423433B667A66FFE7FFE7C046002379
:103C50002C042D0C7A6F386F00196941B0BC704785
:103C6000000000D0F0B594460025140E01D11202D8
:103C70000835140F01D112010435940F01D19200BF
:103C80000235D40F01D152000135D40B0134254F38
:103C90007C66254C3C660E0C93B2FFE7FFE7FFE71E
:103CA0003C6F6643360C7703BE467343DF0B5B0401
:103CB000C01AB941130C7343DB18C91ACE08664306
:103CC000360CB64493B273431F0F1B01C01AB9419F
:103CD000130C73431F0B1B05C01AB941860D8F02CD
:103CE0003E436643360C092D24DB520A7243801A88
:103CF0007703460A6643360C16235B1BDE40DF4023
:103D0000BF1964466643821B7046043506330100C2
:103D1000D940A840C01900D30131A24206D20023E5
:103D2000F0BD0000000000D0FFFFFFFF121B0130BC
:103D3000F3D3F1E709277F1BFE406446A2B272432A
:103D4000801A00D20139220C7243130C1204821A19
:103D500099410B007046043513370100F940A84023
:103D6000801900D30131002B02D1A2420AD2F0BD4A
:103D7000013000D30131121BFAD2013BF8D1A2422B
:103D800000D2F0BD013000D30131121BF7E7F0B5CE
:103D90001C0C00D080E00CB400251C0A04D11B02CE
:103DA000160E3343120208351C0B04D11B01160FEB
:103DB0003343120104359C0B04D19B00960F33430F
:103DC00092000235DC0B02D192185B4101351C00D8
:103DD000971864410134464F7C66464C3C660E0C95
:103DE000FFE7FFE7FFE7C0463C6F6643360C77030B
:103DF000BE4697B27743C01B00D20139C01B00D228
:103E000001399FB27743C91BC91B170C77437E0446
:103E1000FF0B801BB941CE086643360C0C2D33DBFB
:103E2000B644120B1F053A431B0B97B27743C01BD6
:103E300000D201399FB27743C91B170C77433E0468
:103E40003F0C801BB941860D8F023E4366432927F4
:103E50007F1BFE400C3D7746AF40BF1930BCA2B27D
:103E6000ABB272437343801A9941220C7243130C14
:103E70001204801A994102000B000137001BA9416E
:103E8000F9D2781E0021F0BD0C277F1BFE4077463B
:103E90007F0BAF40FF19E0E700245D1C07D0144FF3
:103EA0007D663966FFE7FFE7FFE7FFE73C6F95B206
:103EB0009EB265436643401BB141150C1E0C654321
:103EC000664336042F0C3E432D04401BB1419942FA
:103ED00004D202000B0020000021F0BD01D190426D
:103EE000F7D3801A994101349942F2D3F6E70000E2
:103EF000000000D0FFFFFFFF48404140484018B499
:103F0000134B5B68019308BD18B4114B1B680193F8
:103F100008BD94460F4A926F920805D2624618B4C3
:103F20000B4BDB68019308BD0A4AF0B5146E556E61
:103F3000576F166F6246FFF7F2FF064A1466556622
:103F400057671667F0BD18B4014B9B68019308BD15
:103F500070530020000000D0FFB550404240504058
:103F600059404B40594000E0FFB5154F4C00640DDF
:103F700003D0BC4204D10C0314D80020090D09055C
:103F80005C00640D03D0BC4204D11C030AD800229B
:103F90001B0D1B0501264B4009D44B4003D58B421A
:103FA00000D18242FFBD9942FCD19042FFBD0B433C
:103FB000DB1803431343F5D0C9434918FFBD000084
:103FC000FF07000000B5FFF7CFFF804100BDC046EE
:103FD00000B5FFF7C9FF01D9002000BD012000BDD9
:103FE00000B5FFF7B9FF01D9002000BD012000BDD9
:103FF00000B5FFF7B1FF804100BD012040054A0038
:10400000121804D85A00121801D800207047012055
:1040100070470020704700000021002805D170473C
:10402000C1174840401AFAD0C90713B5064B1B68A0
:1040300098470CBC441CA2401005120B0349091BF5
:1040400009051943114310BD705400201F040000DE
:1040500010B54C00620D8023D218DB00D21A5B052C
:104060007E2A10DD9E3A13DACC170903490819435A
:104070005242D140640001341532202A05DAD04082
:104080000843604310BD002010BD0846604310BDCA
:10409000C80FC018013810BD18B4024B5B6A0193F9
:1040A00008BD00007053002010B50148FEF796FBD4
:1040B0003C94001070B513231C78012C12D0012CF5
:1040C00012DC214B214A93642148FFF789FC214BE4
:1040D000186070BD20491D4A9800815001331F2B84
:1040E000F8D9ECE70023FAE71C48FFF781FC05004C
:1040F0001B48FFF77DFC023803789B007F2B09DD0E
:1041000012488022290000F059F9022C08D0022C14
:10411000DADCD6E7134B144A14483221FEF7C6FA0C
:10412000134B1A88B5231B029A4209D1114B1A88E6
:10413000114B9A4204D1114B1A88114B9A42E6D086
:104140000020FEF74BFBC046854100107053002055
:104150004C33000070540020A9400010534400006C
:10416000534600005494001050A40010A89400106E
:1041700054380000D8380000494600009C38000040
:104180005946000007B56046002800D100BE0188EE
:104190000A0A0230DF2AFAD1C9B2820804D302889F
:1041A00040880004104300E00068024A5050039029
:1041B00007BD00007053002051434343C9188C468B
:1041C000110C83B24B4310B4040C614392B280B221
:1041D000504362431C041B0C001910BC59411304CA
:1041E000120CC018514161447047000048404140E2
:1041F00048400E4B5B6818470C4B1B6818470C4A2D
:10420000936F9B0802D2094BDB681847F0B5146E18
:10421000556E576F166FFFF7F6FF054A1466556621
:1042200057671667F0BD014B9B6818477454002010
:10423000000000D0491A002808D108467047000045
:10424000C10FC90700D54042002817D0F44603B477
:104250000B4B1B68984706BC81409E38404280311A
:1042600007D20B0607D04900490AC005104308438E
:1042700060470130F8E7490A8902F5E77047000016
:1042800070540020014B5B6A1847000074540020F2
:1042900010B50148FEF7A2FA349C001070B5132344
:1042A0001E781848FFF7A4FB0500012E11D0012E3F
:1042B00009DDAB1E1B789B007F2B1DDD1248802281
:1042C000290000F07BF81148FFF78AFB104B1860BB
:1042D00070BD0D485422290000F070F8002300E062
:1042E00001331F2BE3D8084A9C00A258002AF7D1BB
:1042F0000849054AA150F3E7074B084A08484221FC
:10430000FEF7D4F953460000745400204C330000EB
:104310007054002091420010EC94001064A400102E
:104320002095001010B5002804D04018034B984287
:1043300000D810BD0248FEF751FAC0460000042024
:104340006095001070B50500084E300004F0CCFBFD
:10435000280003F025FE0400300004F035FB29009E
:104360002000FFF7DFFF200070BDC0468838002026
:1043700070B504000D00094E300004F0B5FB2900B3
:10438000200004F017F90400300004F01DFB2900A0
:104390002000FFF7C7FF200070BDC046883800200E
:1043A00001480421014B1847E0320020013A001077
:1043B000014B1B6818470000E0320020014B5B688E
:1043C00018470000E032002010B50300080011007B
:1043D0001B68984710BD0000F8B507000D001600D7
:1043E000437D002B02D0002400200CE00368110064
:1043F000280098472DE03B7D10E03B6815480221DE
:104400009847601C0134B44214DA002CF3DD2B19F8
:10441000013B1B780D3B5A425341DBB22A5D0A2A0D
:10442000F0D1002BEED1A042E7DA3B68211A281820
:104430009847E2E7B04203DA3B68311A28189847F8
:10444000002E06DDAD19013D2B780D3B5A4253413C
:104450003B75F8BD9CA4001070B505000368002BE7
:1044600016D00C4B1C6805E0290004C92000FFF79A
:10447000B3FF2469002C09D02368002BF9D0064B28
:104480001B68002BF0D0A342F3D1EDE700232B6093
:1044900070BDC046444100205041002070B5050069
:1044A0000C000B68802B05D023685A1C2260E4188E
:1044B000257170BD0800FFF7CFFFF5E710B5002BA1
:1044C00002DB0260436010BD024B034A03483F21F8
:1044D000FEF7ECF8A08D0010A0A40010BC8D001019
:1044E00010B582B00400FDF7FFFA02000B00684629
:1044F000FFF7E4FF009A019B22606360200002B096
:1045000010BD000070B582B0060014001D00FA2234
:104510009200002306980021FFF74EFE02000B00D8
:1045200012196B41002B09DB6846FFF7C7FF009AA1
:10453000019B32607360300002B070BD01225242B4
:10454000004BF1E7FFFFFF7F30B585B004000D00A1
:1045500002A8FFF7C5FF029A039B00952000FFF712
:10456000D1FF200005B030BD00B583B0FA2189002D
:104570006846FFF7E9FF009A019B024804F074FACD
:1045800003B000BD9038002010B5024804F01CFABA
:1045900010BDC04690380020F0B5CE46474680B5E5
:1045A00083B006000D0090461C00FFF7DDFF81463A
:1045B0006B1C05D0002C08D0194F1A4B1C6807E063
:1045C000300004F057F80500F4E7174FF5E72469C9
:1045D000002C17D02368002BF9D0144B1B68002B3C
:1045E00001D0A342F3D12A0031002000B84743464E
:1045F000002BECD06B46D91D0A230B700122200042
:10460000B847E4E74B46002B07D16B1E9D41E8B24B
:1046100003B0C0BCB946B046F0BDFFF7B5FFF4E744
:10462000C943001044410020D943001050410020EC
:1046300010B582B004006B46D81D04700023002220
:104640000121FFF7A9FF200002B010BD094A01E0D7
:1046500010331A001368002B08D08342F8D10029C8
:1046600007D1036913600023036102E0002900D031
:10467000106070474441002010B5064B1C6801E0F3
:1046800098472469002C03D06368002BF8D1F8E721
:1046900010BDC0464441002070B5050003F0EAFF9C
:1046A00004000023012201002800FFF775FFFFF737
:1046B000E3FF200070BD000070B5A2B004000E0042
:1046C000FFF752FF0500002301930A483300220040
:1046D00001A9FFF767F9040001A8FFF7BDFEFFF786
:1046E000CBFF002D02D1200022B070BDFFF74CFFA0
:1046F000F9E7C0469D4400100FB400B583B004A98B
:1047000001C90191FFF7D8FF03B008BC04B01847F6
:1047100010B500F001F900F0C1FA012010BD000051
:1047200010B582B00C00144BC3185A425341134ABF
:104730005B009B5E8B4204D06B46DA1D1470002137
:1047400015E06B46DA1D0D23137000210029F3D10B
:1047500083699B06FCD41378036001310132F5E7CD
:1047600083699B06FCD41378036001310132002970
:10477000F6D002B010BDC0460080FCBF94550020AA
:1047800082B000226B46D91D06E08369DB06FCD4AB
:1047900003680B7001320131002AF6D06B46D879DC
:1047A00002B0704770B506000D00002405E0315DD1
:1047B000034B1868FFF7B4FF0134AC42F7DB70BD60
:1047C00098550020F8B506000D00002705E07C1C78
:1047D000F719FFF7D5FF38702700AF4204DA0E4A09
:1047E00010688269D206F2D50C4A1268002A0CD0F1
:1047F000094A12685021916310003430526B183905
:1048000011408022520102431160002F01D0380074
:10481000F8BD033FFBE7C04698550020A0400020AC
:1048200010B5064B1B68002B06D0054A1268002104
:104830009163044A1068984710BDC046A04000200C
:1048400098550020A840002070B505000E001C4BB4
:104850001A681C4BD31859424B4114331C000028D2
:104860001ED0194B1B68002B04D0174B1D60174B33
:104870001E6070BD16492000FCF758F80121200089
:10488000FCF72AF80E4B1B6850229A63190034314A
:104890005B6B183A1A4080235B010B431A60E4E714
:1048A000094B1B68002BE0D00023936300212000FC
:1048B000FCF712F806492000FCF76AF9D5E7C04674
:1048C000985500200080FCBFA0400020A840002098
:1048D0002148001070B50D001C000D4B1860002A17
:1048E0000BDA002C0EDA0A4B18682900FDF75AFC87
:1048F00008480121FFF7AAFE70BD02211000FBF756
:104900005DFEEEE702212000FBF758FEEBE7C04614
:1049100098550020F032002010B5064B1B78064B4E
:104920001B78E1210123002249020448FFF7D2FF4E
:1049300010BDC0466CA8001068A8001000400340DD
:1049400070470000014B00221A707047BB550020D1
:104950004B79FF2B0CD18B79002B0BD1CB79012B11
:104960000AD1082A0AD98A78054B1A70092000E072
:10497000002070470020FCE70020FAE70020F8E75D
:10498000BB5500200120704770B504000D0003489E
:10499000FFF726F803002900200098475542000041
:1049A00010B5012926D1117953791B020B43124905
:1049B00009788B4201D000201DE05378012B03D0F1
:1049C000022B10D0002016E09178D3781B021943F7
:1049D000DB0506D54B0A012098407F231940FFF7DD
:1049E000D3FF0020F9E7642200210020FDF702FE3A
:1049F000012000E0012010BDBB5500200123037001
:104A000000487047CCA4001010B50A784B781B0200
:104A100013438A7812041A43CB781B061343962259
:104A2000D200934200D010BD00210800FFF7ACFF78
:104A3000024B1860024B19607047C046A44000202A
:104A4000AC40002010B5002B02DB0260436010BDBB
:104A5000024B034A03483F21FDF728FEA08D0010BA
:104A600000A50010BC8D001010B582B00400FDF749
:104A70003BF802000B006846FFF7E4FF009A019B39
:104A800022606360200002B010BD000070B582B0EB
:104A9000060014001D00FA2292000023069800214F
:104AA000FFF78AFB02000B0012196B41002B09DB98
:104AB0006846FFF7C7FF009A019B326073603000C1
:104AC00002B070BD01225242004BF1E7FFFFFF7FB1
:104AD00030B585B004000D0002A8FFF7C5FF029AAB
:104AE000039B00952000FFF7D1FF200005B030BDEB
:104AF00010B582B004000498059912184B41002BA0
:104B000009DB6846FFF79EFF009A019B2260636005
:104B1000200002B010BD01225242014BF1E7C04615
:104B2000FFFFFF7F10B5024B1878FBF7DDFE10BDCD
:104B3000BC5500200268EFF3108172B61368002B99
:104B4000FCD0BFF35F8F41607047000070B50F4B22
:104B50001B68002B16D00D4C2000FFF7EBFF0C4B11
:104B600000221A7021686368BFF35F8F0A6083F3C5
:104B7000108800240025074B1878FBF7B5FE2000AD
:104B8000290070BDFA24A4000025F4E77C4500202C
:104B9000BD550020BC550020F0B587B004001600BC
:104BA0001D000EAB1F7804A8FFF75EFF049A059B5B
:104BB0000096019504A8FFF79BFF049A059B0297B6
:104BC0000D9901910C9900912000FCF75FFD07B051
:104BD000F0BDF0B5C64600B584B0050088461600A5
:104BE0001F000AAB1C78FCF719FD02940197009690
:104BF0002A004346FFF7D0FF04B080BCB846F0BDA2
:104C000010B582B01948002103F0FEFE002822D121
:104C1000174B1B68002B26D0154C2000FFF78AFF8E
:104C2000144A137801214B40DBB201211170216835
:104C30006268BFF35F8F0020086082F31088002B4A
:104C400011D00D4A012300930023FA208000002197
:104C5000FFF7BFFF07E001200021404201F08CF880
:104C6000024803F0B1FE02B010BDC0467C550020E2
:104C70007C450020BD5500204D4B001010B5054B64
:104C80001868002804D0044B1968002200F09EFD2B
:104C900010BDC046A4400020AC40002010B582B03A
:104CA000D0231B061C68FCF7B9FCFCF7E9FDA04209
:104CB0002CD1234B1B7801F02DFD2248FCF725F960
:104CC0000120FCF7AFF8204C20702049FF2318404A
:104CD000FBF72CFE20780121FBF7FEFD0520FBF7FA
:104CE00013FE041E18D01A4900220520FBF748FEC7
:104CF000FBF746FD0100174B1800FCF723F9164897
:104D00000121FFF7A3FC200002B010BD134B144A91
:104D10001448B221FDF7CAFC134A01230093002373
:104D2000FA2080000021FFF754FFC443E40F094834
:104D300008220021FFF73CFB002CE4D0DFE7C0464F
:104D400070A800107C550020BC550020014C0010BC
:104D5000254B00107C45002008330020408D0010BA
:104D6000F0A40010E49500104D4B001010B5002089
:104D700001F0FAF910BD000030B583B004000D0059
:104D8000FFF7F4FF002830D0002001F009FA0028D6
:104D90002ED0FA2189006846FFF79AFE009A019BFF
:104DA000164803F061FE002825D0FFF7DFFF00283A
:104DB00004D0002001F0F4F900280CD101200021DA
:104DC000404200F0D9FF032464420C4803F0FCFD8C
:104DD000200003B030BD2A002100002001F0ECF9D2
:104DE000041EF2D103246442EFE703246442EFE798
:104DF00003246442ECE703246442E9E77C55002085
:104E0000F0B5C64600B582B080460D00FA21890093
:104E10006846FFF75DFE009A019B2C4803F024FED4
:104E2000002803D102B080BCB846F0BDFFF79EFF5A
:104E3000002849D1264B00200021186059602348E2
:104E400003F0C2FDEEE701200021404200F094FF94
:104E5000002001F0C5F9FFF789FF0028EFD00020FE
:104E600001F036FA002820D0AC42E8DA2E1B0020F0
:104E700001F02EFA0200864200DC3200002AE2D065
:104E800043461919002001F007FA0600012000210D
:104E9000404200F071FF002001F0A2F9A419FCF7D4
:104EA00023FE0B4B18605960DEE7FCF71DFE084B34
:104EB0001E685F68074A002392197B419942BED859
:104EC000D2D19042D0D9BAE70024CDE77C5500205A
:104ED000B039002020A107000048704784A50010C9
:104EE0000048704730A5001010B50400154B1B7822
:104EF000002B0ED0002C11D1134B144A5A800123E1
:104F000001335B009BB21048C02292001343038020
:104F100010BD0C48112100F025F8EBE7052C0ED848
:104F20000B4BA400E4580023122BE9D8E15C0029C4
:104F3000E6D00133044A58008152DBB2F4E7002086
:104F4000E6E7C046A05500201C41002009040000EF
:104F500018A5001010B5024800F032F810BDC04688
:104F60006853002010B5002901D000230AE0104B3F
:104F7000104A11481F31FDF799FB00220DE037322E
:104F8000C25401334A1E9A420ED90F2B0CD85A082C
:104F90000A4CA45CDA07F0D4042214410F22224008
:104FA000092AECDC3032EBE7C0180023037010BD97
:104FB0006496001098A500106C96001068530020AD
:104FC00030B589B0040004AD0D2200212800FFF7A0
:104FD000EFF90D2200216846FFF7EAF94B232B7009
:104FE0000D226946280003F0E7FC002304E05A1D67
:104FF00069468A5CE2540133072BF8DD09B030BD05
:1050000002007F201040D209400080184001014B6F
:10501000C01870475841002010B5038B3F333F2222
:105020009343022915D0124C2268C260D318236022
:105030009C0610D10F4C6240634080246401A3425F
:105040000FD88906114380231B060B434268136067
:1050500010BD5B00E7E7084B084A09485421FDF7FB
:1050600025FB084B054A06485621FDF71FFBC046A5
:1050700060450020000010500098001008A60010A5
:105080003098001080980010F8B505000E0014004C
:10509000FFF7B6FF7F232B40EF0985707A427A41F4
:1050A00042700022C2700683C476012F0DD0DA0050
:1050B00012498C4662448260826800211160002B94
:1050C00009D143600E4BC360F8BDDA000D498C4630
:1050D00062448260F0E7012F09D0013BDB000A4AFD
:1050E0009446634443602100FFF796FFECE7013BE1
:1050F000DB00064A944663444360F4E784001050A2
:1051000000011050800010500C001050080010508A
:1051100070B584B006000D0014000C22002101A817
:10512000FFF746F96B461E7103236A4653710295D9
:10513000210001A803F080FC04B070BD70B50C0024
:105140001500FFF75DFF2A00210000F00DF970BD8A
:1051500010B5002804D101210520FBF7BDFB10BDCF
:10516000034B044AD52104484900FDF79FFAC04685
:10517000C8980010F8A500103098001010B500284D
:1051800005D1002200218020FFF7D8FF10BD034B7E
:10519000034ADB2103484900FDF788FAC89800104C
:1051A000E8A5001030980010024B80225202DA6409
:1051B0007047C0460020115070B5041E26D100F083
:1051C000ADF8164D0C23AB671549FF220520FBF700
:1051D000D7FB144840220021FFF7EAF800224021C3
:1051E0000020FFF751FF002240218020FFF74CFFF5
:1051F00003F072FC01232B6480239B05EB64902356
:10520000094AEA502000FFF7CFFF70BD074B084A5C
:1052100086210848FF31FDF749FAC04600001150C9
:10522000990400205841002010D00100C8980010B7
:105230001CA60010309800100B785B0602D14B784A
:10524000052B00D070478A78014B1A60FAE7C046F8
:105250000000115010B50A0000280DD18878097996
:1052600053791B020B435B05590DD2789207920FBD
:10527000FFF70AFF012010BD034B044AFC2104483C
:10528000FF31FDF713FAC046C8980010D8A50010EA
:105290003098001010B503F01FFC10BD10B50400CD
:1052A000080011001A00002C03D1FFF747FF01206E
:1052B00010BD034B034A04480449FDF7F7F9C04603
:1052C000C8980010C8A50010309800100A0200000D
:1052D00010B508004B0605D1CB09012B0AD00222DC
:1052E000054B9A66FFF78CFE80221201002103F025
:1052F000EBFB10BD0122F3E70020115010B50800B0
:105300004B0600D110BDFFF77BFE0023C3700022C7
:10531000014903F0D9FBF5E7FFF7FFFF10B5802344
:105320005B040C4A13600C4A13600C4B9A68802390
:105330005B049343F9D10A4C9C2200212000FFF723
:1053400037F88022520100210648FFF731F809237F
:10535000636710BD00E0004000F0004000C0004066
:10536000000011500000105070B504000D00160030
:10537000837E002B17D1A6820023E3820133A3761C
:105380002561200003F008FB002804D0094A90237F
:1053900080218902D150200003F05EFB002805D057
:1053A0000123237770BD03F07FFBE4E7200003F0C7
:1053B00063FBF7E70020115070B5050000240CE0F6
:1053C00062001219D200184B1B689B18002B2AD0C0
:1053D0005B68280098470134E4B2144B1B78A34261
:1053E00010D3134A002A0BD0A342E9D8E31ADBB248
:1053F000002B18D15A00D318DB000E4A9B18E7E7A0
:105400002300F5E70C4C532200212000FEF7D0FFCB
:10541000E01C1022FF21FEF7CBFF200013302022DA
:10542000FF21FEF7C5FF70BD443B0020B4550020AE
:10543000FD490010C4A600106C3E00200268EFF386
:10544000108172B61368002BFCD0BFF35F8F4160F0
:10545000704710B5FFF7B0FF00F0E4FD10BD70B568
:1054600005000C001600C86800F0E6FDE368320095
:1054700001212800984770BDF0B5DE4657464E46DC
:10548000C0B582B000900139C8B2FFF729FD0028ED
:1054900000D18EE043789A46022B00D08BE0C5798C
:1054A0006C1101224A4B1440240119781026B14393
:1054B00021431970AD112A405201C9B22024A143E1
:1054C0000A431A70070009378278C3781B02134316
:1054D000C418A74266D27B780B2B09D001239B46C8
:1054E0007B78042B6ED1E31B9BB29946002538E0F4
:1054F000FB789B463B78FF18F2E76B005B19DB00FB
:10550000344A1668F618002E3DD1002054E02B00D6
:1055100032E0B268304B9A4242D1D34640E02C4947
:10552000CB18DD700132D2B2934509D9BB789B18F4
:10553000DBB22749C918C978FF29F0D000203BE029
:1055400026482B00019E3200390001F06FF9B44665
:105550006744234B1B78AB42BBD200202CE00135C3
:10556000EDB21F4B1B78AB42F3D31E4A002ACED0BC
:10557000AB42C2D8EB1ADBB2002B25D15E00F61885
:10558000F600194BF618B3684A4639000098984758
:1055900001900828E3D98145E1D35B46012BB8D0BF
:1055A0000022C1E7114B002B10D000E000BF01200A
:1055B00002E0002000E0002002B0E0BCBB46B246A2
:1055C000A946F0BD0020F7E70020F5E70120F3E74A
:1055D0006C3E0020443B0020ED6300107F3E002025
:1055E000B4550020FD490010C4A6001000000000C2
:1055F00070B505000C00CB7888780F2B50D89A0036
:105600002E498A589746FFF767FC020012232100B3
:10561000280000F0D3FC44E0294B002B42D000E0EE
:1056200000BF021E40D08178C3781B020B432100CB
:10563000280000F0C3FC34E0022B09D0214B002BE2
:1056400034D000E000BF0200002A05D1002028E08D
:10565000FFF746FC0200F7E79178D3781B020B4373
:105660002100280000F0AAFC1BE0237961790902DF
:105670001943FFF739FC021E1AD0037821002800D5
:1056800000F09CFC0DE0104B002B13D000E000BF9D
:10569000021E11D003782100280000F08FFC00E0EA
:1056A000002070BD0020FCE70020FAE70020F8E7AA
:1056B0000020F6E70020F4E70020F2E738A600100B
:1056C000000000000000000000000000024B5878BD
:1056D000431E9841C0B270476C3E0020024B1878C0
:1056E0004007C00F7047C0466C3E0020034B18783F
:1056F000FF38431E9841C0B27047C0464433002073
:1057000070B50400FFF7F2FF061E01D0300070BD37
:10571000244853220021FEF74BFE234D2800FBF7BF
:10572000F4FB224B1D60224D2800FBF715FC143DB5
:10573000280001F0CFFB1F4B1D601F4B002B04D036
:105740001E48FFF75BF91E4B186000250BE06A004E
:105750005219D2001A4B1B689B18002BD6D01B681D
:1057600098470135EDB2154B1B78AB4210D3124A66
:10577000002A0BD0AB42EAD8EB1ADBB2002BC5D122
:105780005A00D318DB000F4A9B18E8E72B00F5E717
:105790000D4B1C702000FFF70FFD2000FFF7D8FC19
:1057A0000126B3E76C3E0020243E0020C03E0020CE
:1057B0003C330020C43E0020FD490010B4550020B9
:1057C000443B0020C4A6001044330020F0B585B04F
:1057D00007000E00150001AC0C2200212000FEF78E
:1057E000E7FD08236370029703962900200003F069
:1057F00023F905B0F0BD000070B50C00094B1D7811
:105800008B7870221A4201D0002070BD064B997827
:10581000200000F0CFFF0028F7D021002800FFF77C
:1058200019FDF2E7443300206C3E0020F8B5CE4667
:10583000474680B581460C0017001E00089B98461D
:10584000002504E0099A13702378E4180135AF426B
:1058500014DD6378052B16D1E1788907890FB142F1
:1058600013D121004846FFF7C7FF002807D0A378CF
:10587000DA09012AE6D042461370E5E70120C0BCF0
:10588000B946B046F8BD0020F9E70020F7E7000070
:1058900010B57F200840C909400040183030044B43
:1058A000C0180330034B196800F040FF10BDC0461C
:1058B0006C3E0020C03E002010B57F200840C90982
:1058C000400040183030044BC0180330034B1968B7
:1058D00000F054FF10BDC0466C3E0020C03E0020CA
:1058E000F8B5CE46474680B5194800787F250D406B
:1058F000CE09184C6F00E419A4193034E478E40799
:1059000004D50020C0BCB946B046F8BD114CE4191E
:10591000A4193027B946A1444C46E4780127BC4677
:1059200067463C4327004C46E770FFF7B7FC00286A
:10593000E8D1084B6D005B199B193033DA780121EF
:105940008A43DA70DA7803318A43DA70DAE7C046DC
:10595000443300206C3E002070B50F4B18787F2434
:105960000C40CD090D4B62009B185B193033DB787E
:105970009B0700D570BDFFF7ABFC084B64001B19FB
:105980005B193033DA7802210A43DA70DA780121C0
:105990000A43DA70EEE7C046443300206C3E002034
:1059A00070B50F4B18787F240C40CD090D4B620069
:1059B0009B185B193033DB789B0700D470BDFFF771
:1059C0009DFC084B64001B195B193033DA78022107
:1059D0008A43DA70DA7801398A43DA70EEE7C04632
:1059E000443300206C3E00207F220A40C909044B4A
:1059F00052009B185B183033D8788007C00F70476F
:105A00006C3E0020F0B5C64600B582B005000C0023
:105A1000002000F011FB227860231340602B00D19E
:105A20007FE1402B18D02278D206D20E012A00D175
:105A3000C5E0022A00D10BE1002A00D078E1202B3A
:105A400017D0002B00D079E16378092B00D977E1DA
:105A50009B00C24AD3589F46C14B002B00D165E141
:105A6000180000F0E9FA22000121280000E000BF40
:105A700058E123790F2B00D95CE1BA4AD318DB78BF
:105A8000B94A002A05D0B94A127893420ED39B1A1C
:105A9000DBB2002B00D04FE15900C918C900B44B4C
:105AA000C91822002800FFF7DAFC3BE15A00D3189E
:105AB000DB00B04A1168C9180029F2D1002031E199
:105AC000200000F0BFFAA1782800FFF757FBA54A95
:105AD000137802210B431370012023E1A14B5B7863
